:020000040800F2
:10000000F8090020D9000008AD1A0008611700089F
:1000100000000000000000000000000000000000E0
:10002000000000000000000000000000851D000826
:100030000000000000000000AF1A0008871D000843
:10004000EB000008EB000008EB000008EB000008E4
:10005000EB000008EB000008EB000008EB000008D4
:1000600000000000EB000008EB000008EB000008B7
:10007000EB000008EB00000800000000E51D000890
:100080000000000000000000000000000000000070
:10009000EB00000800000000EB000008EB00000887
:1000A00000000000EB00000800000000000000005D
:1000B00031240008EB0000080000000000000000F0
:1000C0000448854600F090F800480047692700087A
:1000D000C046C046F809002004488047044800474D
:1000E000FEE7FEE7FEE7FEE7FEE7FEE7911D0008FC
:1000F000C100000830B50B46014600202022012433
:1001000009E00D46D5409D4205D31D469540491B4B
:100110002546954040191546521E002DF1DC30BD94
:10012000F0B51FB40646002082B005464024019178
:1001300000901BE0019922460F46304600F042F83D
:10014000049A059B801A994110D3104619462246FD
:1001500000F028F8361A8F4101972246012000212D
:10016000009F00F01FF838184D4100902046641E93
:100170000028DFDC019B00982946324607B0F0BD1D
:10018000D2B201E00270401C491EFBD2704700222F
:10019000F6E710B513460A4604461946FFF7F0FF86
:1001A000204610BD10B5202A04DB0146203A9140BC
:1001B000002010BD914020239C1A0346E3401943C0
:1001C000904010BD10B5202A04DB0846203AD040EC
:1001D000002110BD0B46D340D0402024A21A9140EC
:1001E0000843194610BD0000064C0125064E05E0E7
:1001F000E36807CC2B430C3C98471034B442F7D348
:10020000FFF762FF2C3600084C36000870B5044634
:1002100000688168490720D58168102649070029B0
:1002200005DA8168890702D481683143816000F072
:1002300005FC05460DE000F001FC401B0A2808D92A
:10024000606D30436065A06D01210843A0650846DC
:1002500070BD206880684007EDD4002070BD0000AC
:1002600038B50446064805490068FFF743FF604378
:1002700000E0401E00900028FBD138BD40420F0036
:1002800010000020F8B50446006881688907890FCE
:10029000012925D10168C90722D0816805221140B2
:1002A0001025012601290FD18168022211438160A6
:1002B00021680320086000F0C1FB07460CE000F055
:1002C000BDFBC01B0A2807D9606D28436065A06D7F
:1002D0003043A0650120F8BD20688068C007EED1DA
:1002E0000020F8BDF8B50446006881688907890FC9
:1002F000012902D10168C90722D18168114A10265B
:100300001140012500290ED1816829438160012017
:10031000FFF7A6FF00F092FB07460CE000F08EFB13
:10032000C01B0A2807D9606D30436065A06D284363
:10033000A0650120F8BD20680068C043C007EDD16A
:100340000020F8BD17000080F8B50546044640358A
:10035000287C0026012808D00120287420688168A4
:100360008907890F01290ED101E00220F8BD01683B
:10037000C90708D0606D2021084360650126002070
:1003800028743046F8BD616DFF220132914302228C
:1003900011436165C1688907890F0091C1688908A7
:1003A0008900C1602068816892071143816000F074
:1003B00045FB07460EE000F041FBC01B0A2809D9A7
:1003C000606D022188431021084360650020287475
:1003D0000120F8BD206880680028ECDB2068C16837
:1003E000009A1143C160606D80088000401C606508
:1003F000C5E70000F8B506460D464036317C0129B8
:100400000DD00121317401688A68520709D5416D08
:10041000202211434165002030740120F8BD0220E4
:10042000F8BD174B6A68D80547109A42154C8A6A7E
:100430002B6812D05B035B0B1A438A62296849035D
:1004400005D5A1680143A1600A20FFF709FF2868CC
:10045000800312D5A06838430EE05B035B0B9A4320
:100460008A622968490302D5A1688143A16028688E
:10047000800302D5A068B843A06000203074F8BDA6
:1004800001100000002701400068006C7047000068
:1004900070B5040006D0606D264600254036002861
:1004A00002D006E0012070BDA5653574204600F03D
:1004B000D3F8606DC00603D421688868400705D56D
:1004C000606D1021084360653574EBE7606DFF22B5
:1004D0000132904302221043606588688207920FC0
:1004E0005B48012A02D10A68D2072BD10323626834
:1004F0009B079A4205D05B429A4202D05B009A4227
:1005000009D10A69920092080A6121680A69636840
:100510001A430A610CE00A69920092080A61816834
:100520000F22920491438160816862681143816067
:100530002168CA6818239A43CA602168CA68A368F8
:100540001A43CA6081680122520691438160816822
:10055000A28E52061143816020688168C90004D4CC
:10056000816801221207114381602068C168394AFD
:100570001140C1602069E168022825D000200143B4
:10058000204620300278037B52035B001A4311435C
:10059000226B1143A26992031143E269D203114312
:1005A0002268D3681943D160616A0A46FF3AC23AA9
:1005B00005D0A26A11432268D3681943D1604278FA
:1005C0000121012A02D00BE00420D8E7007800289E
:1005D00023D0606D202210436065A06D0843A065A4
:1005E000E06B012820681FD00169C90703D00169A9
:1005F00049084900016120684169C908C900416191
:1006000020684169A26B11434161A565606D800856
:100610008000401C6065002070BD2068C268012316
:100620001B041A43C260DBE70269FF239B009A4365
:10063000026120680269236CA66C1A43636C334321
:100640001A430261206802690A430261D3E700008D
:10065000002701401902FEFF10B586B004461421A0
:100660006846FFF794FD0D492068884214D10C4874
:10067000416B421511434163C26A02210A43C262BF
:10068000C06A00910840059003200190002002906C
:100690006946044800F010F906B010BD002401407E
:1006A0000010024000040050F8B504464069254699
:1006B00040350E4608280BD02068C068C00709D016
:1006C000606D202108436065002028740120F8BD7A
:1006D000082700E00C2700F0B1F9009011E0701C31
:1006E0000FD0002E05D000F0A9F90099401AB042B1
:1006F00007D9606D04210843606500202874032039
:10070000F8BD206800683842E9D0606D01214902D7
:10071000084360652068C16809058A0F0C21002A1A
:100720001BD12022125D002A17D10268120714D5AE
:10073000826853070122002B08DB43688B43436028
:10074000606D130298431043606506E0606D2023DE
:1007500018436065A06D1043A065A069002801D111
:10076000206801600020F8BD70B5044621680020B3
:100770008968490721D425464035297C01291CD0A8
:1007800001212974E169012904D02046FFF7AAFD5F
:10079000002811D1616D0A4A1140FF220132114334
:1007A00061650021A165297422681C2111602168FE
:1007B0008A6804231A438A6070BD022070BD00005D
:1007C000FEF1FFFF70B5054604464035287C012840
:1007D00007D001262E742046FFF718FD002802D00E
:1007E0000CE0022070BD2046FFF74CFD002805D12B
:1007F000616DFF220132914331436165002129740B
:1008000070BD30B5014620314A790023022A04D058
:100810000422C2630B71012030BD026814680E25EA
:10082000AC43146002681468640864001460446C8B
:100830001C22144001221546006CA54045604A71F7
:1008400018460B7130BD70B50024014620314A793D
:10085000022A03D00421C163012418E0026813684E
:100860000E25AB431360026813685B085B001360DE
:10087000436C1C221340012215469D40036C5D60B1
:100880004A7100220A71816B002900D088472046F6
:1008900070BD000070B5044600F0D0F80546601C3D
:1008A00002D004480078241800F0C8F8401BA04289
:1008B000FAD370BD04000020FCB5002301249DE0A4
:1008C00027462A469F403A406FD04D68012D05D0FB
:1008D000022D03D0112D01D0122D16D185680326CB
:1008E000AC465D00AE46AE406546B543AC46CE680C
:1008F0007546AE4065462E43866046680D79BE4318
:10090000ED06ED0F9D4035434560C6685F00032549
:10091000BD40AE46AE4335468E68BE402E43C660EF
:100920004E68022E01D0122E14D1DE08B600361801
:100930000196366A5D07B446EE0E0F25B540009667
:100940006646AE43B4460D69009EB54066462E43EA
:10095000019D2E6206687546AE430D79AD07AD0F59
:10096000BD40354305604D68ED0046D5264D6E6BA4
:1009700026436E639E08254DB6007519AC46AD68DA
:100980009E07360F0F27B740BD4305273F07B842E4
:1009900001D1002710E01E4FB84201D101270BE022
:1009A0001C4FB84202D1022706E026E01A4FB84297
:1009B00001D1052700E00627B7402F436546AF6009
:1009C000164D2E684F689643FF0300D516432E60E0
:1009D0006E684F689643BF0300D516436E60AE68DD
:1009E0004F689643FF0200D51643AE60EE684F682D
:1009F0009643BF0200D51643EE605B1C0A6815469D
:100A0000DA4000D05CE7FCBD00100240000001406D
:100A10000004005000080050001C00500004014079
:100A2000426913460B401B0491430B43836170479B
:100A3000002A01D081617047816270470148806857
:100A4000704700000400002070B502464032537821
:100A5000202B1CD11378012B19D0012313702424CF
:100A60005470046825689D432560046825681E034A
:100A7000B5432560046825680D432560006801685A
:100A800019430160202050700020107070BD0220BA
:100A900070BD70B5024640325378202B1BD11378BD
:100AA000012B18D0012414702423537003681D688F
:100AB000A5431D6005682B680F263602B343090263
:100AC00019432960006801682143016020205070AB
:100AD0000020107070BD022070BD000070B50400D1
:100AE00006D02546403568780026002802D005E06B
:100AF000012070BD2E70204600F062F9242068703D
:100B0000206801684908490001600F2160680906F2
:100B100088432168086121688A680120C0038243F4
:100B20008A60E1680129A16808D02122920211435C
:100B300022689160E168022902D005E00143F7E7ED
:100B400001212268C902516021684A680F4B1A438B
:100B50004A602168CA688243CA60616920690843A3
:100B6000A169090208432168C860216AE069084355
:100B700021680860206801680122114301606664F1
:100B8000202068702663AE70002070BD00800002D7
:100B9000FFB50446002083B02546403501906A78B1
:100BA000202A74D122689269D24312047BD52A7814
:100BB000012A78D001222A7024226A7060648F058D
:100BC000BF0DE06801280BD00520C00201213818B4
:100BD0008902884321684860FFF730FF06460CE031
:100BE0003248F3E70698401C07D0FFF727FF811B28
:100BF0000698814219D8002817D021688869896928
:100C00008006C00FC906C90F0843EBD02068806971
:100C1000069BC043C006009617D50022202120461F
:100C200000F0FCFD002830D107E020206870616CE6
:100C3000014361640020287027E021682020C861FA
:100C400068700020287007B0F0BD002220212046E7
:100C500000F0E4FD002818D121681020C861216847
:100C60002020C86101990598814214D1206841680B
:100C70000122920311434160009600222021204668
:100C8000069B00F0CBFD002802D00120DBE70AE044
:100C900021682020C8610198401C014601900598F8
:100CA00081428ED3C1E70220CDE700000020000280
:100CB000FFB5054604464035687881B0202878D1D4
:100CC0002878012875D001202870FFF7B7FE074665
:100CD000012200901923D103204600F09FFD002837
:100CE0003CD1212068701020A8700026666403980B
:100CF0006062049860856663618D2F48FF2903D97F
:100D0000FF22228500903BE0618D218500903DE02F
:100D10002046029900F06EFD16E000F0CCFD0028A0
:100D20001CD1606A216800788862606A401C606239
:100D3000608D401E6085208D401E80B22085618DB3
:100D4000002901D000280CD0608D0A9900283A466D
:100D50002046E2D100F089FD00281CD0012005B01A
:100D6000F0BD00970022802120460A9B00F056FD2E
:100D70000028F3D1608DFF2805D9FF222285009637
:100D800001231B06C4E7608D20850096208D01237A
:100D9000C2B25B06BCE721682020C86121684A68AE
:100DA000064B1A404A606870AE702E700020D6E77D
:100DB000FFE70220D3E700000020008000E800FEEB
:100DC00010B586B0044614216846FFF7E0F91049D3
:100DD000206888421AD10F4CE16A01200143E16288
:100DE000E16A02900140059103214902009112211C
:100DF0000191032104900391052069460007FFF744
:100E00005BFDA06B012149050843A06306B010BD3E
:100E1000005400400010024002488168027889189E
:100E2000816070470400002010B508480024016864
:100E3000402211430160204600F00AF8002801D04A
:100E4000012401E000F026F8204610BD00200240F9
:100E500070B504460D4D7D202978C000FFF74AF992
:100E600001460B480068FFF745F900F08BF80028B1
:100E700009D1042C07D200222146401E00F022F89E
:100E800000206C6070BD012070BD000004000020D7
:100E9000100000200448416B012211434163816B23
:100EA000020411438163704700100240002805DBF3
:100EB000C106C90E01208840014908607047000042
:100EC00000E100E010B501F0F5FA10BD0448054955
:100ED0000068C968044A4905490F515CC840704719
:100EE0001000002000100240C528000804480549F1
:100EF0000068C968044A8904490F515CC8407047BA
:100F00001000002000100240C528000870B51A4AE1
:100F1000D3681A490C2018408D0004280CD04E00CC
:100F2000082810D00C2810D050680004410F012070
:100F3000C003491C884070BD1068C00601D5084632
:100F400070BD284670BD304670BD98020C4C000F35
:100F5000205C1B029C0FD368641CDB0301D5314667
:100F600003E01268D20600D4294601F07DFA224639
:100F70000023FFF7D5F870BD0010024000093D00C6
:100F8000BC280008094910B5401E884201D901203B
:100F900010BD074C60610321081F01F08BFA00208F
:100FA000A06107202061002010BD0000FFFFFF00AE
:100FB00000E000E0F0B502462032137E012B1ED087
:100FC000012515760223537606687468B368702786
:100FD000BC430F68274377600068AC07A04205D088
:100FE000084CA04202D0084CA04204D18024496899
:100FF000A34319438160557600201076F0BD02208E
:10100000F0BD0000000801400014014070B505006B
:1010100005D02C462034607E002802D006E0012056
:1010200070BD00202076284600F010F8022060767F
:10103000291D286800F0DEFE0120A077A076E0766A
:10104000207760776076002070BD000010B50068E2
:101050000121890788420CD10648816B0122114386
:101060008163002211460F20FFF72CFF0F20FFF7AE
:101070001DFF10BD00100240014620314A7E012AAA
:1010800001D00120704702224A760268D36801210C
:101090000B43D36000688A07904205D0074A90420C
:1010A00002D0074A904204D182685207520F062AA2
:1010B00002D002680A430260002070470008014025
:1010C00000140140F8B5054604462035287E012865
:1010D00017D001262E76022068762268906877273E
:1010E000FF23B8431B02984390600A68502A31D00E
:1010F0000EDC202A4BD006DC002A48D0102A3AD138
:1011000045E00220F8BD302A41D0402A33D136E0F4
:10111000602A27D0702A12D001200003121A2AD088
:10112000824228D1CB684A688968206800F08EFE28
:101130002068816801229203114381601BE0CB6823
:101140004A688968206800F081FE21688868384311
:10115000886010E0CA684968206800F08AFE502163
:10116000206806E0CA684968206800F093FE6021A4
:10117000206800F076FE6E7600202876F8BDCA68FA
:101180004968206800F075FE40212068F1E71146AB
:101190002068EEE7704770B50446006801690025D5
:1011A000C9438907002915DBC168C943890711D4E0
:1011B000E91E0161012020762068806980072046B1
:1011C00002D0FFF7E7FF04E000F078F8204600F0D7
:1011D00076F8257620680169C943490717D4C168A4
:1011E000C943490713D40421C94301610220207671
:1011F000206880698005800F204602D0FFF7CAFF73
:1012000004E000F05BF8204600F059F825762068ED
:101210000169C943090716D4C168C943090712D433
:101220000821C9430161042020762068C069800735
:10123000204602D0FFF7AEFF04E000F03FF8204662
:1012400000F03DF8257620680169C943C90617D426
:10125000C168C943C90613D41021C94301610820DC
:1012600020762068C0698005800F204602D0FFF7F5
:1012700091FF04E000F022F8204600F020F82576E7
:1012800020680169C943C90708D1C168C943C907B2
:1012900004D1891E0161204600F012F8206801691E
:1012A000C943490609D4C168C943490605D4402148
:1012B000C9430161204600F01BF870BD70477047BC
:1012C00010B500680121890788420DD1074C08211B
:1012D0002046FFF7A5FB01F0CDF96420FFF7DAFA0D
:1012E00008212046FFF79CFB10BD000000040050C1
:1012F0007047704770477047F8B502680446D06978
:1013000011689668814B05461D402023002D6CD046
:10131000F7077F4DFF0FBC460D402F4379D0254680
:10132000C7078035002F06D0CF0504D501271762E7
:101330002A683A432A60820708D5F20706D0276850
:1013400002223A622A6804273A432A60420708D5F3
:10135000F20706D02668042232622A680226324347
:101360002A6002070AD50A461A406646324305D06B
:101370002668082232622E6816432E60020508D5C0
:101380004A0106D501222668D20232622A681A432F
:101390002A602A68002A30D0800606D5880604D53F
:1013A000616E002901D02046884728682168896835
:1013B000490602D42821084225D0204600F01EFE0E
:1013C00020688168490619D5826840218A43826075
:1013D000206F002812D04F498163206FFFF733FA46
:1013E00000280AD0206F816B06E0850611D58D0696
:1013F0000FD5616E77E020468847F8BD2046FFF79D
:101400007AFFF8BD05E02046FFF775FF0020286051
:10141000F7E7256E012D56D1C50654D5CD0652D518
:101420001026166220688168254649064035002945
:101430002ADA226F116849680904090CE1D02F8B60
:101440008F42DED9698311680968890617D401685B
:101450003201914301602068816849084900816038
:1014600020688168402291438160E3670020206604
:1014700020680168B1430160206FFFF7C2F9288B33
:10148000698B401A81B21AE0298B6A8B891A6A8BA0
:1014900089B2002AB5D00029B3D00268FF252135D2
:1014A000AA43026020688268520852008260E367A3
:1014B00000202066606620680268B2430260204611
:1014C000FFF717FF9DE7C50208D5750206D5012075
:1014D000000510622046FFF70DFF92E7050605D5CF
:1014E0000D0603D5A16E002985D18AE7400688D56F
:1014F000480686D5116820464024A14311608367C1
:101500000021816600F02BF97BE700000F08000046
:1015100020010004E91F000810B5040003D0A06FEB
:10152000002802D007E0012010BD002174200155E1
:10153000204600F027F82420A067206801684908A9
:1015400049000160204600F0E9FD0128ECD0606A06
:10155000002802D0204600F0B0FC20684168092233
:10156000D20291434160206881682A2291438160C0
:1015700020680168012211430160204600F002FD4D
:1015800010BD000010B586B0044614216846FEF771
:10159000FEFD13492068884220D11248816B012248
:1015A000520411438163C26A02210A43C262C06AC3
:1015B000019108400590C020009000210320029175
:1015C0000491039069460848FFF776F90022114616
:1015D0001C20FFF777FC1C20FFF768FC06B010BD4D
:1015E00000440040001002400004005030B5C36FBA
:1015F000202B27D100290BD0002A09D00124836891
:101600002403A34206D10369002B03D1CB0701D0E9
:10161000012030BD034660331C7D012C12D0012413
:101620001C7500230366084C0368A34207D05C685E
:10163000240204D51C680125AD062C431C6000F073
:101640005BFE30BD022030BD0048004010B50C49A3
:1016500000680968884212D10A4801780A4831298D
:1016600002D0302902D005E0012200E000228021D2
:10167000FFF7DEF9322203490148FFF7B7FF10BD3B
:10168000700100202400002000040050FFB5044633
:10169000806F83B017460D4620285ED1002D0AD0FA
:1016A000002F08D0A168C001814207D1206900281D
:1016B00004D1E80702D0012007B0F0BD2046603019
:1016C0000090007D012848D000980121017500207C
:1016D000802108512120A067FFF7B0F92646403647
:1016E0000190378277820120A1680003814202D1F4
:1016F0002069002805D02F46002500990020087594
:1017000011E00027F9E700228021204600F040FE8A
:10171000002815D1002F15D02168387888627F1CE9
:10172000708A401E7082708A019B00280698009083
:10173000E9D100224021204600F02AFE002808D0EE
:101740000320B9E728882168C005C00D8862AD1C58
:10175000E6E72020A0670020AEE70220ACE7704754
:10176000FEE701688A69D243920701D400228A62A7
:1017700000688169C943C90703D081690122114307
:1017800081617047F7B5044600680E468069C04322
:10179000C0062BD420272546403520688069C043E9
:1017A000800612D5701CF8D0FFF748F90299401A4C
:1017B000B04201D8002EF0D1606C384360646F7085
:1017C0000020A87028700120FEBD21681020C8618B
:1017D0002068C7612046FFF7C4FF20684168044ABB
:1017E00011404160606C04210843E7E70020FEBD22
:1017F00000E800FEF0B50668059C7568064F600DB0
:10180000384385438805800D11040843184320435D
:1018100005437560F0BD0000FF63FF03F8B51D468A
:1018200017460E46044609E0681C07D0FFF706F984
:101830000699401AA8420BD8002D09D0206881696A
:10184000304688430FD00020B842EDD00020F8BDCC
:10185000616C202001436164403460700020A070FE
:1018600020700120F8BD0120EEE770B516460D4648
:1018700004460FE0324629462046FFF783FF002842
:1018800001D0012070BDFFF7D9F8801BA84208D80D
:10189000002D06D020688069C0438006EAD400206D
:1018A00070BD616C20200143616440346070002091
:1018B000A0702070E5E770B516460D46044611E0AD
:1018C000324629462046FFF75DFF002801D001205F
:1018D00070BD681C06D0FFF7B1F8801BA84208D87D
:1018E000002D06D020688069C0438007E8D400201E
:1018F00070BD616C20200143616440346070002041
:10190000A0702070E3E700001CB50021144800918E
:10191000124A01910260C1631205816042608163D5
:10192000012202610246C16020321170FF23517012
:10193000C233436281621173016381610422416396
:101940004261C161FEF7A4FD06480090012000033A
:10195000019069460248FEF74DFD1CBD0024014080
:101960008800002000020024F0B587B014216846EA
:10197000FEF70DFC1B48C26A04210A43C262C26A18
:101980000A400592C16A01252943C162C16A294002
:101990000591C26A02210A43C262C06A0526084054
:1019A00036070590002220213046FFF741F80E4F00
:1019B000002208213846FFF73BF820200024009041
:1019C00002946946019503943046FEF775FF08209E
:1019D000009002946946019503943846FEF76CFF27
:1019E00007B0F0BD001002400004005010B50D48D3
:1019F0000B4901600C494160002181600161416136
:101A000081610122C161C2600162FFF767F80021B4
:101A10000448FFF719F800210248FFF73AF810BD13
:101A200000540040E4000020BB7C700010B586B07C
:101A30000024009401210F4801940294039404941B
:101A40008907059412C0046084600B49C46041603A
:101A50000838FFF7DBFA01200003009069460548CB
:101A6000FFF730FB049404A902480594FFF7A2FA9B
:101A700006B010BD30010020FFFF000010B50A487D
:101A8000084901604B21C901416000218160C160AA
:101A900001618161C1610C22016242614162FFF713
:101AA0003BFD10BD004400407001002070477047AE
:101AB00070B5802815D2402913D24D0701246D0F2F
:101AC0000A4BAC40C9081E79C901094B0818002E01
:101AD00002D0002A06D001E0012A03D0195CA143FC
:101AE000195470BD195C2143FAE700001C00002066
:101AF000F401002010B5002806D0FF220121890240
:101B00000248FEF73DFB10BD0022F7E7F40100207C
:101B1000014A1080518070471C00002010B500F071
:101B200093FE554B012278215448FFF731F80028E5
:101B300001D0002010BD5248401EFDD1AE22002130
:101B4000782000F087FE20220021782000F082FE1D
:101B500010220021782000F07DFEB02200217820A4
:101B600000F078FEC8220021782000F073FE0022E9
:101B70001146782000F06EFE10220021782000F03F
:101B800069FE40220021782000F064FE81220021BD
:101B9000782000F05FFEFF220021782000F05AFE3E
:101BA000A1220021782000F055FEA62200217820F5
:101BB00000F050FEA8220021782000F04BFE3F22CA
:101BC0000021782000F046FEA4220021782000F0B9
:101BD00041FED3220021782000F03CFE0022114675
:101BE000782000F037FED5220021782000F032FE68
:101BF000F0220021782000F02DFED922002178204B
:101C000000F028FE22220021782000F023FEDA22B4
:101C10000021782000F01EFE12220021782000F022
:101C200019FEDB220021782000F014FE2022002182
:101C3000782000F00FFE8D220021782000F00AFEAF
:101C400014220021782000F005FEAF220021782028
:101C500000F000FE2E220021782000F0FBFD002085
:101C6000FFF748FF00F06CF8064800210180418032
:101C700001214171084610BD204E0000E400002003
:101C8000C20900001C000020F7B50D4621482A7843
:101C900001888918802904D2408869784018402832
:101CA00001D30020FEBD002627E000996A68203994
:101CB000484380194000175A00241AE03846A040D3
:101CC000000408D51348029A418800888919001930
:101CD00089B280B20AE00298002818D000220D488C
:101CE000418800888919001989B280B2FFF7E0FEA7
:101CF000641C2878A042E1D8761C6878B042D4D819
:101D000004482A780188891801800098FEBD0122C4
:101D1000E5E700001C00002070B515460E4604469D
:101D200009E02A463146FFF7AFFF2178884201D00B
:101D3000C8B270BD641C20780028F2D1C0B270BD5A
:101D400070B50F4D00242046B030C2B2002178207B
:101D500000F080FD00221146782000F07BFD10226B
:101D60000021782000F076FDE00142198023402117
:101D7000782000F07FFD641CE4B2082CE3D370BD32
:101D8000F4010020704710B5FFF746F810BD0000C1
:101D900010480168821511430160C1680E4A114064
:101DA000C16001680D4A114001608168490849001D
:101DB000816001680122920491430160C168FD22A3
:101DC00012049143C160002101610549C00388608C
:101DD00070470000001002400C40FF88F6FFF6FE3E
:101DE00000ED00E010B50248FFF7D5F910BD000086
:101DF0003001002070B5026801239B07114C124D81
:101E0000984203D0A04201D0A84203D17026B24329
:101E10004E683243984203D0A04201D0A84204D178
:101E200003231B029A43CB681A4380239A430B690E
:101E30001A4302608A68C2620968816201214161B5
:101E400070BD0000000801400014014030B58468F6
:101E5000FF252D021B021343AC430B432343836036
:101E600030BD826870239A430A4307210A43826087
:101E7000704730B5036A046A6408640004628469C8
:101E8000F025AC43120122430A24A3430B43826191
:101E9000036230BD30B5036A1024A3430362846932
:101EA000036A0F252D031203AC432243A024A3434E
:101EB000090119438261016230BD10B5818CC907E7
:101EC00007D001684A6801235B049A43836A1A4376
:101ED0004A60818C890707D501684A6801231B0481
:101EE0009A43C36A1A434A60818C490707D501683F
:101EF0004A6801239B049A43036B1A434A60818C0E
:101F0000090707D501684A680123DB039A43436B3D
:101F10001A434A60818CC90607D50268916801237B
:101F20001B039943836B19439160818C890607D504
:101F300001688A6801235B039A43C36B1A438A6072
:101F4000818C490612D503685A6801210905046C81
:101F50008A4322435A60026C8A4207D10268516860
:101F600003235B059943436C19435160818C090637
:101F700007D501684A680123DB04806C9A43024359
:101F80004A6010BDF8B50446002680300660FEF7B2
:101F900055FD054620680068124F000709D501214C
:101FA0002B46002249052046009700F0F1F9002851
:101FB0000DD12068006840070BD501212B46002277
:101FC00089052046009700F0E3F9002801D003209E
:101FD000F8BD2020A067E0672666603426750020E3
:101FE000F8BD0000FFFFFF0110B5806A0022014626
:101FF00040314A834A82FFF77EF910BD01680A68C2
:10200000FF2321339A430A6001688A68520852000C
:102010008A60016E012904D101680A6810239A437D
:102020000A602021C167002101664166704770B5D2
:1020300004464030828BE36F2168222B04D08869EC
:1020400008221043886170BD496A636D1140198090
:10205000616D891C6165418B491E4183418B00295B
:10206000F1D121680A68FF2321339A430A6021686D
:102070008A68520852008A602021E167002565665F
:10208000216E012904D02046FFF7E0FA256670BDD5
:1020900021680A6810239A430A60018B2046FFF7E3
:1020A00028F9F3E770B504464030828BE36F21686E
:1020B000222B04D0886908221043886170BD496AC8
:1020C0001140626D1170616D491C6165418B491E43
:1020D0004183418B0029F1D121680A68FF23213314
:1020E0009A430A6021688A68520852008A60202157
:1020F000E16700256566216E012904D02046FFF7BF
:10210000A5FA256670BD21680A6810239A430A6003
:10211000018B2046FFF7EDF8F3E70000F8B5044621
:10212000016880682369E6691843636900253343C1
:1021300018436A4A0B686A4E334003430B602068B9
:10214000416803231B039943E368194341602168F5
:10215000A069914201D0236A18438B680B2636028E
:10216000B34303438B605F4923685F488B420AD1C6
:10217000C0680C21084027D0042829D0082825D081
:102180000C2811D10EE093420ED1C16803208002C9
:10219000014019D001208002091A19D0091A15D05E
:1021A000814201D1082700E010274F494F484039AC
:1021B0008600934232D1002F0CD0022F0DD0042F75
:1021C00010D0082F7FD126E00027EEE70227ECE7AA
:1021D0000427EAE7FEF77AFE06E00968C90605D497
:1021E000304603E0FEF792FE002872D0626851008C
:1021F0005118814267D81103814264D3010E06024F
:102200005008002330185941FDF78AFF03210902C5
:10221000411A374A55E00120C003E7E70122E3698C
:10222000D20393422BD13B0000F036F90906090C8A
:102230004D114D4D4D274D00FEF748FE09E0FEF7CC
:1022400055FE06E00968C90605D4304603E0FEF7EE
:102250005DFE00283DD0616840004A088018FDF707
:1022600049FF80B20146234A103991422BD8511CB4
:1022700001400007400F084329E01046EBE73B0010
:1022800000F00AF90906090C21122121212321005D
:10229000FEF71CFE0AE0FEF729FE07E00968C90602
:1022A00006D4304604E00EE0FEF730FE002810D0E1
:1022B00061684A081018FDF71DFF80B201460D4AFB
:1022C0001039914203D9012503E01046F0E7216857
:1022D000C86000206066A0662846F8BD004800403F
:1022E000F369FFEF004400404010024000093D0048
:1022F000FFFC0F00EFFF000070B541650146403163
:102300000A834A8300224266012483682403FF254E
:10231000A34204D10369002B13D11A4B0AE07F2694
:10232000002B09D001252D07AB420CD10369002BEE
:1023300005D03F238B8307E00369002B01D08E83F8
:1023400002E08D8300E08A8380210A502221C16748
:1023500001688B6801252B438B608168A14202D103
:10236000016900290BD00849416674210A540068AC
:102370000168FF22213211430160002070BD034932
:10238000F2E70000FF010000A52000082F20000850
:10239000FFB581B005460F46044660350A9E39E018
:1023A000701C37D0FEF74AFB0499401AB04222D87D
:1023B000002E20D02068016849072BD5C069C04392
:1023C000000527D401202168C00208622068016846
:1023D000FF22A132914301602068816849084900C9
:1023E00081602020A067E06780342060002028758D
:1023F000032005B0F0BD20680168FF22A13291439F
:102400000160206881684908490081602020A06738
:10241000E067EBE72068C1693846884305D00021B2
:1024200003988142BCD00020E3E70121F8E70000D7
:1024300010B50248FEF760FF10BD000070010020DB
:102440000FB410B504A9074B02AA039800F064F872
:10245000044602A9002000F007F9204610BC08BC81
:1024600004B0184769260008F8B5040C8BB226465C
:1024700082B25E430D0C1046370C58433604801967
:102480000021794116466E43370C36048019794194
:1024900026466E438919F8BD30B47446641E25780B
:1024A000641CAB4200D21D46635D5B00E31830BC88
:1024B000184700008307FF22DB0E9A408907090EA8
:1024C0009940002808DB830809489B001B181868FE
:1024D00090430843186070470007000F08388308CE
:1024E00004489B001B18D86990430843D861704783
:1024F00000E400E000ED00E002E008C8121F08C19F
:10250000002AFAD170477047002001E001C1121F74
:10251000002AFBD170470000FFB58DB004460025AE
:1025200006E025280AD0109A0F999047641C6D1C6C
:1025300020780028F5D1284611B0F0BD00270121F0
:10254000484A009700E00743641C23780846203B74
:1025500098401042F7D120782E2817D10420074345
:102560006078641C2A280CD10E98641C02C8009163
:102570000E900BE000990A22514330394018641C38
:1025800000902078014630390929F3D920780028B5
:10259000D1D0642808D0692806D075281ED0109A9A
:1025A0000F9990476D1C5BE00A200E99019001C9BC
:1025B0000E91002802DA40422D2102E0390504D5AF
:1025C0002B216A461172012103E0F90704D0202172
:1025D000F7E70BAE0B910DE00021FAE70A200E9908
:1025E000019001C90E91F7E70199FDF783FD3031A4
:1025F000761E31700028F7D103A8801B203001908F
:10260000780701D5009801E00120009001998842E7
:1026100001DD401A00E000200027009006E002A83B
:10262000109AC05D0F9990476D1C7F1C0B988742D4
:10263000F5DB04E0109A30200F9990476D1C00994B
:10264000481E00900029F5DC05E03078109A761CD1
:102650000F9990476D1C0199481E01900029F4DCE8
:10266000641C65E7092801000A68531C0B601070A0
:10267000704700003EB5244C24A122886846FFF72D
:10268000DFFE218805242407642907D20A21084691
:10269000FFF73EFA0122204920A008E0C82919D2FC
:1026A0000A210846FFF734FA01221B4923A0FFF74D
:1026B00033FB1E210A20FFF72BFA01221649684638
:1026C000FFF72AFBFFF73CFB002208212046FEF71C
:1026D000AFF93EBD0A210846FFF71AFA01220E495A
:1026E0001CA0FFF719FB1E210A20FFF711FA012297
:1026F00009496846FFF710FBFFF722FB0821204637
:10270000FEF78EF93EBD0000000000202575696EC1
:102710007431365F74000000140000204E69766545
:102720006C20646520434F3220417573656E74657B
:10273000206F7520426169786F0000004E697665F0
:102740006C20646520434F322050726573656E744F
:10275000650000004E6976656C20646520434F3249
:1027600020416C746F0000008AB0FEF75DFBFFF73C
:10277000FBF8FFF75BF92448FEF77EFC2248403067
:10278000FEF7CAFEFFF7F0F8FFF778F9FFF74EF90A
:10279000FFF7BAF8FFF72AF9FFF7C0F91A480A213C
:1027A000A838FDF7D1FD1848322218494030FEF70D
:1027B0001DFF7D26154DF600154C3235134864304B
:1027C000FDF7D2FF114831466430FDF76DFF0F4829
:1027D0006430FDF759FE20800C486430FDF7F2FFAD
:1027E00022880CA16846FFF72BFE208807490009C4
:1027F000287005486423322232314030FEF746FF0C
:102800001920FEF747F8D9E7300100202400002006
:10281000000000200A4E6976656C20646520434FF5
:102820003220417573656E7465206F752042616951
:10283000786F202D2056616C6F723A202575696E75
:102840007431365F740000000148401EFDD17047AE
:1028500090D003001CB56B4619715A710A21009182
:102860000146022301AA0248FEF722FA1CBD00001D
:10287000E400002070B5C2B06C462171002401A9AB
:1028800004E0155D0E19641C7570E4B29C42F8D327
:102890000A2100915B1C01469BB201AA0248FEF787
:1028A00007FA42B070BD0000E40000200000000004
:1028B00000000000010203040607080903040608DB
:1028C0000C1018203000000000010203040000007A
:1028D00000000000000000000000000000000000F8
:1028E00000000000000000000000000000000000E8
:1028F00000000000000C000C000C000C000C000C90
:10290000000C000C000C000C000C0000000C000C73
:102910000000000000000000001B001B001B001B4B
:10292000001B00000000000000000000000000008C
:102930000000000000000000000000008019801965
:1029400080198019C07FC07F80190033C07FC07F8D
:1029500000330033003300330000000000000000AB
:10296000001E003F807580650074003C001E00075B
:102970008005806580658075003F001E00040004AE
:1029800000000000007000D840D8C0D880D9007383
:102990000006000C801BC036C066C046C00680031F
:1029A0000000000000000000001E003F0033003364
:1029B0000033001E000CC03CC066806380618063F1
:1029C000C03E801C0000000000000000000C000C55
:1029D000000C000C000C00000000000000000000D3
:1029E0000000000000000000000000000000800067
:1029F00000010003000600060004000C000C000C9F
:102A0000000C000C000C000400060006000300018E
:102A10008000002000100018000C000C00040006CC
:102A2000000600060006000600060004000C000C6C
:102A30000018001000200000000C002D003F001EB8
:102A40000033000000000000000000000000000053
:102A50000000000000000000000000000000000076
:102A6000000C000C000C000CC0FFC0FF000C000CA0
:102A7000000C000C0000000000000000000000003E
:102A80000000000000000000000000000000000046
:102A90000000000000000000000C000C0004000416
:102AA000000800000000000000000000000000001E
:102AB00000000000001E001E0000000000000000DA
:102AC0000000000000000000000000000000000006
:102AD00000000000000000000000000000000000F6
:102AE000000C000C000000000000000000030003C8
:102AF00000030006000600060006000C000C000C97
:102B0000000C001800180018000000000000000071
:102B1000001E003F0033806180618061806D806DA8
:102B20008061806180610033003F001E0000000072
:102B3000000000000006000E001E00360026000601
:102B40000006000600060006000600060006000655
:102B50000000000000000000001E003F8073806144
:102B60008061800100030006000C00180030006046
:102B7000807F807F0000000000000000001C003EFD
:102B8000006300630003000E000E0003800180015B
:102B900080618073003F001E000000000000000004
:102BA0000006000E000E001E001E00160036003645
:102BB0000066807F807F000600060006000000009F
:102BC00000000000007F007F006000600060006E79
:102BD000007F80638001800180618073003F001E60
:102BE0000000000000000000001E003F80338061F4
:102BF0000060006E007F807380618061806180333F
:102C0000003F001E0000000000000000807F807F69
:102C100080010003000300060006000C000C000CFD
:102C20000008001800180018000000000000000054
:102C3000001E003F8063806180610021001E003F14
:102C40008061806180618061003F001E00000000A3
:102C500000000000001E003F007380618061806101
:102C60008073803F801D800180610073003F001EE3
:102C70000000000000000000000000000000000054
:102C8000000C000C0000000000000000000000002C
:102C9000000C000C0000000000000000000000001C
:102CA000000000000000000C000C0000000000000C
:102CB00000000000000C000C0004000400080000EC
:102CC00000000000000080008003000E003800605B
:102CD0000038000E800380000000000000000000AB
:102CE000000000000000000000000000807F807FE6
:102CF00000000000807F807F0000000000000000D6
:102D00000000000000000000000000000000004083
:102D10000070001C000780010007001C00700040CC
:102D2000000000000000000000000000001F803FC5
:102D3000C071C060C000C00180030007000E000C1D
:102D4000000C0000000C000C00000000000000005F
:102D5000001E003F803180718063806F806D806DC8
:102D6000806F806700600032003E001C00000000A1
:102D700000000000000E000E001B001B001B001BCB
:102D800080318031803F803F8031C060C060C06052
:102D90000000000000000000007C007E0063006373
:102DA00000630063007E007E006380618061806359
:102DB000007F007E0000000000000000001E003FB9
:102DC0008031806100600060006000600060006031
:102DD00080618031003F001E000000000000000004
:102DE000007C007F0063806380618061806180611E
:102DF0008061806100630063007E007C0000000051
:102E000000000000807F807F006000600060006044
:102E1000007F007F0060006000600060807F807F36
:102E20000000000000000000807F807F00600060E4
:102E300000600060007F007F006000600060006054
:102E4000006000600000000000000000001E003F65
:102E50008031806100600060006080638063806119
:102E600080618031803F001E0000000000000000F3
:102E7000806180618061806180618061807F807F0E
:102E800080618061806180618061806100000000FC
:102E900000000000003F003F000C000C000C000C84
:102EA000000C000C000C000C000C000C003F003F5C
:102EB000000000000000000080018001800180010E
:102EC00080018001800180018001806180618073C8
:102ED000003F001E0000000000000000C060806194
:102EE000006300660066006C0078007C0066006687
:102EF000006380618061C06000000000000000008D
:102F000000600060006000600060006000600060C1
:102F10000060006000600060807F807F0000000033
:102F200000000000C071C071C07BC07AC06AC06A76
:102F3000C06EC064C060C060C060C060C060C0607F
:102F400000000000000000008071807180798079AD
:102F50008079806D806D806D806580678067806717
:102F6000806380630000000000000000001E003F3E
:102F700000338061806180618061806180618061F7
:102F800080610033003F001E0000000000000000D0
:102F9000007E007F80638061806180618063007F4C
:102FA000007E0060006000600060006000000000C3
:102FB00000000000001E003F0033806180618061DE
:102FC000806180618061806580670033803F401E42
:102FD0000000000000000000007E007F8063806130
:102FE00080618063007F007E006600630063806113
:102FF0008061C0600000000000000000000E001FA3
:103000008031803100300038001E0007800380616D
:1030100080618031003F001E0000000000000000C1
:10302000C0FFC0FF000C000C000C000C000C000CDA
:10303000000C000C000C000C000C000C0000000048
:10304000000000008061806180618061806180613A
:10305000806180618061806180618073003F001EBB
:103060000000000000000000C060C060C06080314F
:1030700080318031001B001B001B001B000E000E66
:10308000000E00040000000000000000C0C0C0C02E
:10309000C0C0C0C0C0C0C0CC804C804C805E8052DC
:1030A0008052807380618061000000000000000099
:1030B000C0C0806080610033003B001E000C000C2B
:1030C000001E001F003B80718061C0C00000000036
:1030D00000000000C0C08061806100330033001E2A
:1030E000001E000C000C000C000C000C000C000C6E
:1030F0000000000000000000803F803F80010003CE
:1031000000030006000C000C0018001800300060DE
:10311000807F807F000000000000000F000F000C87
:10312000000C000C000C000C000C000C000C000C3F
:10313000000C000C000C000C000C000F000F000035
:10314000001800180018000C000C000C000C000601
:103150000006000600060003000300030000000054
:103160000000001E001E0006000600060006000605
:10317000000600060006000600060006000600061F
:103180000006001E001E0000000C000C001E0012B5
:103190000033003380618061000000000000000007
:1031A000000000000000000000000000000000001F
:1031B000000000000000000000000000000000000F
:1031C00000000000000000000000E0FF0000000020
:1031D00000380018000C0000000000000000000093
:1031E00000000000000000000000000000000000DF
:1031F000000000000000000000000000001F803FF1
:1032000080618001801F803F80618063807FC03843
:10321000000000000000000000600060006000602E
:10322000006E007F80738061806180618061807347
:10323000007F006E000000000000000000000000A1
:1032400000000000001E003F80738061006000608D
:1032500080618073003F001E00000000000000003D
:103260008001800180018001801D803F807380612A
:103270008061806180618073803F801D000000005C
:10328000000000000000000000000000001E003FE1
:1032900000738061807F807F00608071003F001E2E
:1032A0000000000000000000C007C00F000C000C70
:1032B000807F807F000C000C000C000C000C000CC8
:1032C000000C000C000000000000000000000000E6
:1032D0000000801D803F807380618061806180611B
:1032E0008073803F801D80018063007F003E00006E
:1032F0000060006000600060006F807F807180610E
:103300008061806180618061806180610000000077
:10331000000000000006000600000000003E003E25
:10332000000600060006000600060006000600066D
:103330000000000000000006000600000000003E43
:10334000003E000600060006000600060006000615
:10335000000600060046007E003C000000600060A1
:1033600000600060806100630066006C007C007695
:10337000006300638061C060000000000000000086
:10338000003E003E0006000600060006000600069D
:103390000006000600060006000600060000000009
:1033A00000000000000000000000000080DDC0FF01
:1033B000C0CEC0CCC0CCC0CCC0CCC0CCC0CCC0CCAB
:1033C00000000000000000000000000000000000FD
:1033D000006F807F80718061806180618061806129
:1033E000806180610000000000000000000000001B
:1033F00000000000001E003F8073806180618061DA
:1034000080618073003F001E00000000000000008B
:10341000000000000000006E007F8073806180610A
:10342000806180618073007F006E006000600060DA
:1034300000600000000000000000801D803F8073DD
:1034400080618061806180618073803F801D800128
:1034500080018001800100000000000000000000E9
:103460000067803F0039003000300030003000300D
:1034700000300030000000000000000000000000EC
:1034800000000000001E803F80610060007F803FE0
:1034900080018061007F001E00000000000000002D
:1034A0000000000800180018007F007F00180018B6
:1034B0000018001800180018801F800F000000007E
:1034C000000000000000000000000000806180613A
:1034D000806180618061806180618063807F803DE8
:1034E00000000000000000000000000000000000DC
:1034F000C060803180318031001B001B001B000E3A
:10350000000E0006000000000000000000000000A7
:103510000000000080DD80DD80DD00550055005595
:103520000077007700220022000000000000000069
:103530000000000000000000806100330033001E26
:10354000000C000C001E00330033806100000000FE
:1035500000000000000000000000806180618031F8
:1035600000330033001B001B001B000E000E000E7A
:10357000001C007C00700000000000000000000043
:10358000C07FC07F800100030006000C00180030DF
:10359000C07FC07F0000000000008003800700069D
:1035A0000006000600060006000E001C001C000EAF
:1035B00000060006000600060006800780030006DD
:1035C00000060006000600060006000600060006CB
:1035D00000060006000600060006000600060006BB
:1035E00000060038003C000C000C000C000C000C25
:1035F000000E00070007000E000C000C000C000C71
:10360000000C003C0038000000000000000000003A
:10361000000000008038807F0047000000000000AC
:103620000000000000000000000000004C36000810
:103630000000002024000000F82400087036000874
:1036400024000020D4090000082500080000000024
:103650000100000004000000000000000000200045
:103660000B120000CE28000800000000000000003F
:04000005080000C12E
:00000001FF
